{
  "contractName": "Voting",
  "abi": [
    {
      "inputs": [
        {
          "internalType": "string[]",
          "name": "_candidateNames",
          "type": "string[]"
        }
      ],
      "stateMutability": "nonpayable",
      "type": "constructor"
    },
    {
      "anonymous": false,
      "inputs": [
        {
          "indexed": false,
          "internalType": "uint256",
          "name": "candidateId",
          "type": "uint256"
        },
        {
          "indexed": false,
          "internalType": "address",
          "name": "voter",
          "type": "address"
        }
      ],
      "name": "Voted",
      "type": "event"
    },
    {
      "inputs": [
        {
          "internalType": "uint256",
          "name": "",
          "type": "uint256"
        }
      ],
      "name": "candidates",
      "outputs": [
        {
          "internalType": "uint256",
          "name": "id",
          "type": "uint256"
        },
        {
          "internalType": "string",
          "name": "name",
          "type": "string"
        },
        {
          "internalType": "uint256",
          "name": "voteCount",
          "type": "uint256"
        }
      ],
      "stateMutability": "view",
      "type": "function",
      "constant": true
    },
    {
      "inputs": [
        {
          "internalType": "address",
          "name": "",
          "type": "address"
        }
      ],
      "name": "hasVoted",
      "outputs": [
        {
          "internalType": "bool",
          "name": "",
          "type": "bool"
        }
      ],
      "stateMutability": "view",
      "type": "function",
      "constant": true
    },
    {
      "inputs": [
        {
          "internalType": "uint256",
          "name": "_candidateId",
          "type": "uint256"
        }
      ],
      "name": "vote",
      "outputs": [],
      "stateMutability": "nonpayable",
      "type": "function"
    },
    {
      "inputs": [
        {
          "internalType": "uint256",
          "name": "_candidateId",
          "type": "uint256"
        }
      ],
      "name": "getTotalVotes",
      "outputs": [
        {
          "internalType": "uint256",
          "name": "",
          "type": "uint256"
        }
      ],
      "stateMutability": "view",
      "type": "function",
      "constant": true
    }
  ],
  "bytecode": "0x60806040523480156200001157600080fd5b5060405162000d7738038062000d778339818101604052810190620000379190620002d3565b60005b815181101562000117576000604051806060016040528083815260200184848151811062000091577f4e487b7100000000000000000000000000000000000000000000000000000000600052603260045260246000fd5b6020026020010151815260200160008152509080600181540180825580915050600190039060005260206000209060030201600090919091909150600082015181600001556020820151816001019080519060200190620000f49291906200011f565b5060408201518160020155505080806200010e9062000424565b9150506200003a565b5050620004ff565b8280546200012d90620003ee565b90600052602060002090601f0160209004810192826200015157600085556200019d565b82601f106200016c57805160ff19168380011785556200019d565b828001600101855582156200019d579182015b828111156200019c5782518255916020019190600101906200017f565b5b509050620001ac9190620001b0565b5090565b5b80821115620001cb576000816000905550600101620001b1565b5090565b6000620001e6620001e0846200034c565b62000318565b9050808382526020820190508260005b858110156200022a57815185016200020f8882620002a6565b845260208401935060208301925050600181019050620001f6565b5050509392505050565b60006200024b62000245846200037b565b62000318565b9050828152602081018484840111156200026457600080fd5b62000271848285620003b8565b509392505050565b600082601f8301126200028b57600080fd5b81516200029d848260208601620001cf565b91505092915050565b600082601f830112620002b857600080fd5b8151620002ca84826020860162000234565b91505092915050565b600060208284031215620002e657600080fd5b600082015167ffffffffffffffff8111156200030157600080fd5b6200030f8482850162000279565b91505092915050565b6000604051905081810181811067ffffffffffffffff82111715620003425762000341620004d0565b5b8060405250919050565b600067ffffffffffffffff8211156200036a5762000369620004d0565b5b602082029050602081019050919050565b600067ffffffffffffffff821115620003995762000398620004d0565b5b601f19601f8301169050602081019050919050565b6000819050919050565b60005b83811015620003d8578082015181840152602081019050620003bb565b83811115620003e8576000848401525b50505050565b600060028204905060018216806200040757607f821691505b602082108114156200041e576200041d620004a1565b5b50919050565b60006200043182620003ae565b91507fffffffffffffffffffffffffffffffffffffffffffffffffffffffffffffffff82141562000467576200046662000472565b5b600182019050919050565b7f4e487b7100000000000000000000000000000000000000000000000000000000600052601160045260246000fd5b7f4e487b7100000000000000000000000000000000000000000000000000000000600052602260045260246000fd5b7f4e487b7100000000000000000000000000000000000000000000000000000000600052604160045260246000fd5b610868806200050f6000396000f3fe608060405234801561001057600080fd5b506004361061004c5760003560e01c80630121b93f1461005157806309eef43e1461006d5780632ce35e111461009d5780633477ee2e146100cd575b600080fd5b61006b60048036038101906100669190610497565b6100ff565b005b6100876004803603810190610082919061046e565b6102c7565b60405161009491906105a6565b60405180910390f35b6100b760048036038101906100b29190610497565b6102e7565b6040516100c49190610601565b60405180910390f35b6100e760048036038101906100e29190610497565b610382565b6040516100f693929190610645565b60405180910390f35b600160003373ffffffffffffffffffffffffffffffffffffffff1673ffffffffffffffffffffffffffffffffffffffff16815260200190815260200160002060009054906101000a900460ff161561018c576040517f08c379a0000000000000000000000000000000000000000000000000000000008152600401610183906105c1565b60405180910390fd5b60008054905081106101d3576040517f08c379a00000000000000000000000000000000000000000000000000000000081526004016101ca906105e1565b60405180910390fd5b6000818154811061020d577f4e487b7100000000000000000000000000000000000000000000000000000000600052603260045260246000fd5b9060005260206000209060030201600201600081548092919061022f9061074c565b919050555060018060003373ffffffffffffffffffffffffffffffffffffffff1673ffffffffffffffffffffffffffffffffffffffff16815260200190815260200160002060006101000a81548160ff0219169083151502179055507f030b0f8dcd86a031eddb071f91882edeac8173663ba775713b677b42b51be44b81336040516102bc92919061061c565b60405180910390a150565b60016020528060005260406000206000915054906101000a900460ff1681565b60008080549050821061032f576040517f08c379a0000000000000000000000000000000000000000000000000000000008152600401610326906105e1565b60405180910390fd5b60008281548110610369577f4e487b7100000000000000000000000000000000000000000000000000000000600052603260045260246000fd5b9060005260206000209060030201600201549050919050565b6000818154811061039257600080fd5b90600052602060002090600302016000915090508060000154908060010180546103bb9061071a565b80601f01602080910402602001604051908101604052809291908181526020018280546103e79061071a565b80156104345780601f1061040957610100808354040283529160200191610434565b820191906000526020600020905b81548152906001019060200180831161041757829003601f168201915b5050505050908060020154905083565b60008135905061045381610804565b92915050565b6000813590506104688161081b565b92915050565b60006020828403121561048057600080fd5b600061048e84828501610444565b91505092915050565b6000602082840312156104a957600080fd5b60006104b784828501610459565b91505092915050565b6104c98161069f565b82525050565b6104d8816106b1565b82525050565b60006104e982610683565b6104f3818561068e565b93506105038185602086016106e7565b61050c816107f3565b840191505092915050565b600061052460178361068e565b91507f596f75206861766520616c726561647920766f7465642e0000000000000000006000830152602082019050919050565b600061056460158361068e565b91507f496e76616c69642063616e6469646174652049442e00000000000000000000006000830152602082019050919050565b6105a0816106dd565b82525050565b60006020820190506105bb60008301846104cf565b92915050565b600060208201905081810360008301526105da81610517565b9050919050565b600060208201905081810360008301526105fa81610557565b9050919050565b60006020820190506106166000830184610597565b92915050565b60006040820190506106316000830185610597565b61063e60208301846104c0565b9392505050565b600060608201905061065a6000830186610597565b818103602083015261066c81856104de565b905061067b6040830184610597565b949350505050565b600081519050919050565b600082825260208201905092915050565b60006106aa826106bd565b9050919050565b60008115159050919050565b600073ffffffffffffffffffffffffffffffffffffffff82169050919050565b6000819050919050565b60005b838110156107055780820151818401526020810190506106ea565b83811115610714576000848401525b50505050565b6000600282049050600182168061073257607f821691505b60208210811415610746576107456107c4565b5b50919050565b6000610757826106dd565b91507fffffffffffffffffffffffffffffffffffffffffffffffffffffffffffffffff82141561078a57610789610795565b5b600182019050919050565b7f4e487b7100000000000000000000000000000000000000000000000000000000600052601160045260246000fd5b7f4e487b7100000000000000000000000000000000000000000000000000000000600052602260045260246000fd5b6000601f19601f8301169050919050565b61080d8161069f565b811461081857600080fd5b50565b610824816106dd565b811461082f57600080fd5b5056fea2646970667358221220e9274e421caa69ada99b7a20ff614a1f860268bea4db7217aebc39f47398f35964736f6c63430008000033",
  "immutableReferences": {},
  "source": "// SPDX-License-Identifier: MIT\npragma solidity ^0.8.0;\n\ncontract Voting {\n    // Structure to represent a candidate\n    struct Candidate {\n        uint256 id;\n        string name;\n        uint256 voteCount;\n    }\n\n    // Array to store candidates\n    Candidate[] public candidates;\n\n    // Mapping to track whether an address has already voted\n    mapping(address => bool) public hasVoted;\n\n    // Event to emit when a vote is cast\n    event Voted(uint256 candidateId, address voter);\n\n    // Modifier to check if the sender hasn't voted already\n    modifier hasNotVoted() {\n        require(!hasVoted[msg.sender], \"You have already voted.\");\n        _;\n    }\n\n    // Constructor to initialize candidates\n    constructor(string[] memory _candidateNames) {\n        for (uint256 i = 0; i < _candidateNames.length; i++) {\n            candidates.push(Candidate(i, _candidateNames[i], 0));\n        }\n    }\n\n    // Function to cast a vote\n    function vote(uint256 _candidateId) public hasNotVoted {\n        require(_candidateId < candidates.length, \"Invalid candidate ID.\");\n        candidates[_candidateId].voteCount++;\n        hasVoted[msg.sender] = true;\n        emit Voted(_candidateId, msg.sender);\n    }\n\n    // Function to get the total votes for a candidate\n    function getTotalVotes(uint256 _candidateId) public view returns (uint256) {\n        require(_candidateId < candidates.length, \"Invalid candidate ID.\");\n        return candidates[_candidateId].voteCount;\n    }\n}\n",
  "sourcePath": "D:\\MIT-WPU\\6th sem\\Seminar\\Streamlit\\contracts\\MyContract.sol",
  "compiler": {
    "name": "solc",
    "version": "0.8.0+commit.c7dfd78e.Emscripten.clang"
  },
  "schemaVersion": "3.4.16",
  "updatedAt": "2024-04-23T10:21:24.713Z",
  "networkType": "ethereum",
  "devdoc": {
    "kind": "dev",
    "methods": {},
    "version": 1
  },
  "userdoc": {
    "kind": "user",
    "methods": {},
    "version": 1
  }
}